:100000000C9435000C945D000C945D000C945D0024
:100010000C945D000C945D000C945D000C945D00EC
:100020000C945D000C945D000C945D000C945D00DC
:100030000C945D000C945D000C945D000C945D00CC
:100040000C94AC000C945D000C94F0020C94220310
:100050000C945D000C945D000C945D000C945D00AC
:100060000C945D000C945D00520311241FBECFEF71
:10007000D8E0DEBFCDBF11E0A0E0B1E0E8E9F9E0F3
:1000800002C005900D92AA33B107D9F726E0AAE382
:10009000B1E001C01D92A039B207E1F710E0CAE655
:1000A000D0E004C02297FE010E94C604C836D107E2
:1000B000C9F70E9492040C94CA040C94000026E034
:1000C00040E855E260E070E083EF95E00C948E022A
:1000D000AAE3B1E020E030E080E090E06D917D9116
:1000E000FC01EE0FFF1FE65CFE4F40815181461779
:1000F00057070CF4C9012F5F3F4F283542E0340702
:1001000069F70895CF93DF93CAE3D1E08EE00E94B0
:100110008E018993999361E070E080E090E00E9405
:10012000190185E0CA3ED80789F761E071E083EFE5
:1001300095E00E94D3030E946800FC01EE0FFF1FB0
:10014000E65CFE4F608171814AE050E083EF95E00C
:10015000DF91CF910C9479041F920F920FB60F92FA
:1001600011242F933F938F939F93AF93BF938091CD
:10017000EB059091EC05A091ED05B091EE05309165
:10018000EA0523E0230F2D3720F40196A11DB11DB0
:1001900005C026E8230F0296A11DB11D2093EA0594
:1001A0008093EB059093EC05A093ED05B093EE05DD
:1001B0008091EF059091F005A091F105B091F205C5
:1001C0000196A11DB11D8093EF059093F005A093BA
:1001D000F105B093F205BF91AF919F918F913F913F
:1001E0002F910F900FBE0F901F9018953FB7F89466
:1001F0008091EF059091F005A091F105B091F20585
:1002000026B5A89B05C02F3F19F00196A11DB11D71
:100210003FBF6627782F892F9A2F620F711D811D8E
:10022000911D42E0660F771F881F991F4A95D1F7ED
:1002300008958F929F92AF92BF92CF92DF92EF92EA
:10024000FF926B017C010E94F6004B015C01C1141E
:10025000D104E104F104F1F00E94A1040E94F6002F
:10026000681979098A099B09683E734081059105DF
:1002700070F321E0C21AD108E108F10888EE880E77
:1002800083E0981EA11CB11CC114D104E104F10447
:1002900029F7DDCFFF90EF90DF90CF90BF90AF9028
:1002A0009F908F900895789484B5826084BD84B5C2
:1002B000816084BD85B5826085BD85B5816085BD61
:1002C000EEE6F0E0808181608083E1E8F0E010827A
:1002D000808182608083808181608083E0E8F0E0BB
:1002E000808181608083E1EBF0E0808184608083A5
:1002F000E0EBF0E0808181608083EAE7F0E08081DC
:10030000846080838081826080838081816080833B
:100310008081806880831092C10008958E3008F03B
:100320008E5087702091000190E4299F9001112444
:10033000822B80937C0080917A00806480937A0085
:1003400080917A0086FDFCCF809178002091790021
:1003500090E0922B0895FC01818D228D90E0805CCD
:100360009F4F821B91098F7399270895FC01918DEE
:10037000828D981731F0828DE80FF11D858D90E008
:1003800008958FEF9FEF0895FC01918D828D98174E
:1003900061F0828DDF01A80FB11D5D968C91928D69
:1003A0009F5F9F73928F90E008958FEF9FEF089566
:1003B00088E493E0892B49F080E090E0892B29F0D4
:1003C0000E94480381110C9400000895FC01848D63
:1003D000DF01A80FB11DA35ABF4F2C91848D90E06F
:1003E00001968F739927848FA689B7892C93A0894A
:1003F000B1898C9180648C93938D848D981306C001
:100400000288F389E02D80818F7D80830895CF93CA
:10041000DF93EC01888D8823C9F0EA89FB8980810C
:1004200085FD05C0A889B9898C9186FD0FC00FB6DE
:1004300007FCF5CF808185FFF2CFA889B9898C911F
:1004400085FFEDCFCE010E94E601E7CFDF91CF918E
:100450000895CF92DF92FF920F931F93CF93DF9374
:100460001F92CDB7DEB76C0181E0D60158968C9310
:1004700058975B969C915B975C968C915C979813D0
:1004800007C05096ED91FC915197808185FD2EC05B
:10049000F601038D10E00F5F1F4F0F731127F02E31
:1004A000F601848DF81211C00FB607FCF9CFD60102
:1004B0005096ED91FC915197808185FFF1CFC60157
:1004C00069830E94E6016981EBCF838DE80FF11DFE
:1004D000E35AFF4F6083D6015B960C935B9752966D
:1004E000ED91FC915397808180620CC0D6015696A5
:1004F000ED91FC91579760835096ED91FC91519747
:1005000080818064808381E090E00F90DF91CF91C3
:100510001F910F91FF90DF90CF900895BF92CF92DF
:10052000DF92EF92FF92CF93DF93EC016A017B01A0
:10053000B22EE889F98982E08083411581EE58075F
:1005400061057105A1F060E079E08DE390E0A7011D
:1005500096010E94A2042150310941095109569582
:10056000479537952795211580E1380798F0E88958
:10057000F989108260E874E88EE190E0A7019601A5
:100580000E94A2042150310941095109569547950D
:1005900037952795EC85FD853083EE85FF85208393
:1005A000188EEC89FD89B082EA89FB89808180619F
:1005B0008083EA89FB89808188608083EA89FB895E
:1005C000808180688083EA89FB8980818F7D808338
:1005D000DF91CF91FF90EF90DF90CF90BF90089583
:1005E0001F920F920FB60F9211242F938F939F9308
:1005F000EF93FF93E0910306F09104068081E09170
:100600000906F0910A0682FD12C0908180910C06C5
:100610008F5F8F7320910D06821751F0E0910C06C9
:10062000F0E0ED50FA4F958F80930C0601C0808169
:10063000FF91EF919F918F912F910F900FBE0F908F
:100640001F9018951F920F920FB60F9211242F939F
:100650003F934F935F936F937F938F939F93AF934A
:10066000BF93EF93FF9383EF95E00E94E601FF9124
:10067000EF91BF91AF919F918F917F916F915F911A
:100680004F913F912F910F900FBE0F901F90189593
:1006900083EF95E00E94AB0121E0892B09F420E073
:1006A000822F08951092F6051092F50588EE93E0DA
:1006B000A0E0B0E08093F7059093F805A093F905CA
:1006C000B093FA058DE191E09093F4058093F305E2
:1006D00085EC90E0909300068093FF0584EC90E019
:1006E000909302068093010680EC90E090930406BC
:1006F0008093030681EC90E09093060680930506B4
:1007000082EC90E0909308068093070686EC90E0D8
:1007100090930A068093090610920C0610920D061B
:1007200010920E0610920F060895CF92DF92EF926C
:10073000FF920F931F93CF93DF937C016A01EB012C
:1007400000E010E00C151D0571F06991D701ED91E5
:10075000FC910190F081E02DC7010995892B19F0DA
:100760000F5F1F4FEFCFC801DF91CF911F910F9106
:10077000FF90EF90DF90CF9008956115710581F0A3
:10078000DB010D900020E9F7AD0141505109461BF6
:10079000570BDC01ED91FC910280F381E02D09946F
:1007A00080E090E008950C94BD03DC01ED91FC9194
:1007B0000190F081E02D099469E271E00C94BD0391
:1007C0008F929F92AF92BF92DF92EF92FF920F9320
:1007D0001F93CF93DF93CDB7DEB7A1970FB6F894F1
:1007E000DEBF0FBECDBF7C01F42FD52ECB0119A2E9
:1007F000223008F42AE08E010F5D1F4F822E912CCB
:10080000A12CB12C6F2F7D2DA50194010E94A20473
:10081000F22FD32ECA01015011096A3014F4E0E31B
:1008200001C0E7E3E60FD801EC93232B242B252B03
:1008300049F7B801C7010E94BD03A1960FB6F8940D
:10084000DEBF0FBECDBFDF91CF911F910F91FF9003
:10085000EF90DF90BF90AF909F908F900895CF92D0
:10086000DF92EF92FF920F931F93CF93DF93EC01F0
:100870006A017B012115310579F4E881F981019044
:10088000F081E02D642FDF91CF911F910F91FF90A8
:10089000EF90DF90CF9009942A303105E9F477FF8B
:1008A0001AC06DE20E94D5038C0144275527BA0176
:1008B0004C195D096E097F092AE0CE010E94E00310
:1008C000800F911FDF91CF911F910F91FF90EF90BB
:1008D000DF90CF9008952AE0B701A601CE01DF9105
:1008E000CF911F910F91FF90EF90DF90CF900C94DC
:1008F000E0030F931F93CF93DF93EC019A01AB01B9
:10090000662757FD6095762F0E942F048C01CE013B
:100910000E94DC03800F911FDF91CF911F910F91F7
:10092000089508950E9453010E9491040E945F005F
:10093000C8EDD1E00E9482002097E1F30E94D80127
:10094000F9CF0895A1E21A2EAA1BBB1BFD010DC011
:10095000AA1FBB1FEE1FFF1FA217B307E407F5076F
:1009600020F0A21BB30BE40BF50B661F771F881F4B
:10097000991F1A9469F760957095809590959B01E1
:10098000AC01BD01CF010895EE0FFF1F0590F4915A
:08099000E02D0994F894FFCF5B
:1009980001746865206869676865737420726561A9
:1009A80064696E67206973200000000000290295C1
:1009B80003AB01C401B60107020D0A006E616E00A7
:0A09C800696E66006F7666002E006F
:00000001FF
